:040000000CD0000020
:020008007FD1A6
:100018007FD194908B80730ED36EF86A030EF76EBF
:10002800000EF66EFC0E0B6EFE0E0A6E15EC01F05D
:10003800FE0EF66EFF0EF76E0900F550001804E18B
:100048000900F55001184AE03CD80400ACA2FDD7DD
:10005800B880B8A005D0B8AEFCD7B890B89EF5D790
:10006800AE50AE5000EE09F0090E026E22D80550CF
:10007800EE6EE9500B0A0BE10950020A06E009503E
:10008800050A03E00950070A02E10A500226022E77
:10009800EDD726D8026E550E07D800EE09F0EE50BF
:1000A80003D8022EFCD7D1D704009EA8FDD7AD6E89
:1000B80012000400ABB2FF009EAAFED7AE50056E38
:1000C80012008B8C948C948E0F013A9D3A9F900E5F
:1000D800AB6E260EAC6E080EB86E12008B900CD16B
:1000E8000E50F66EA96E0F50F76E10C0F8FF00EEB6
:1000F80012F00A50026E0950090803E2FF0E096E59
:10010800010CFB6A010EFA6E09441A0FD8B0FA2ADC
:10011800F96E09D044D04BD05AD064D06DD03FD0BE
:1001280076D07FD0FF00010E126E010E136E146A96
:10013800156A166A176A3F0EF86EFF0EF76EFE0E06
:10014800F66E0900F5CF18F00900F5CF19F01A6A14
:100158001B6A400E1C6E400E1D6E200EF86EF76A6C
:10016800F66A0900F5CF1EF009001E38F5101E6E5C
:100178000900F5CF1FF009001F38F5101F6E0900A0
:10018800F5CF20F009002038F510206E0900F5CFD2
:1001980021F009002138F510216E190E120009000E
:1001A800F5CFEEFF022EFBD70A50090F1200EECF53
:1001B800F5FF0D00024E03D0F6503F0BF8E10A00A0
:1001C800840EA66E49D809000252F1E141D0940E7E
:1001D800A66E42D8400EF626E86AF722F822022ECA
:1001E800F6D736D0A66AA680A8CFEEFFA92A022E97
:1001F800F9D70A50090F1200EECFA8FF040EA66E19
:100208002BD8A6B2FED7A92A022EF6D721D0C40E23
:10021800A66EEECFF5FF0C001FD80900022EF7D707
:1002280017D0006A016A0A900A52D8A40B2A09005A
:10023800F55000260900F5500122020E0A5EF7E18A
:100248000B2EF5D700C0EEFF01C0EEFF0B0E12001B
:10025800010E126E0A0E120004000C50A76E0D500B
:08026800A76EA682000012003F
:100300000FEF02F0FFFFFFFFFACF06F0FBCF07F081
:10031000E1CF08F0E2CF09F0D9CF0AF0DACF0BF045
:10032000F3CF0CF0F4CF0DF037C00EF038C00FF063
:1003300039C010F03AC011F03BC012F03CC013F0CD
:100340003DC014F03EC015F03FC016F040C017F09D
:1003500041C018F042C019F01DEE18F0F2BC9DA08B
:1003600005D09EA003D003EC61F030D0F2BC9DAA72
:1003700005D09EAA03D07BEC47F028D0F2BC9DA804
:1003800005D09EA803D017EC59F020D0F0B6F0A00D
:1003900003D021EC62F01AD0F0B8F0A203D01EEC2A
:1003A00062F014D0F2B6F2A003D0E6EC60F00ED00A
:1003B000F2BC9DA605D09EA603D04FEC1AF006D045
:1003C000F2BCA0A603D0A1B666EC62F019C042F060
:1003D00018C041F017C040F016C03FF015C03EF005
:1003E00014C03DF013C03CF012C03BF011C03AF015
:1003F00010C039F00FC038F00EC037F00DC0F4FF58
:100400000CC0F3FF0BC0DAFF0AC0D9FF09C0E2FF3E
:1004100008C0E1FF07C0FBFF06C0FAFF11001CEE99
:1004200008F059EF28F018EC62F0030103B127D36C
:10043000CEDB686F6839E832070BE80601E09AD036
:1004400003011D5101E096D00001E50501016F6F28
:100450001AD00001E551E325E66F000EE421E76FB5
:1004600001016F510001E65D866FE751D8A0E705F5
:10047000E5EC48F0C7EC5BF0100E01016F6502D0AF
:100480006F5F01D06F6B6F51E4E1420E0001D06FDE
:10049000030ED16FE3C0D2F0E4C0D3F0E551FC0FFE
:1004A000D46F85EC4DF0D0C072F1D1C073F1D2C0E1
:1004B00074F1D3C075F192DBE4EC54F02DDB725192
:1004C0006B1909E173516C1906E174516D1903E15F
:1004D00075516E190FE0B7EC44F002E177EF5BF075
:1004E00002510F0B030AD8A41200E351D8B4120032
:1004F00077EF5BF0030102510F0B030A03E1D551C3
:10050000CEEC60F0E3C076F1E4C077F1010120EEBB
:1005100007F092DBDECF1EF3DECF1FF3DECF20F33A
:10052000DECF21F320EE0CF087DBDF500F0B9DECCC
:1005300053F0010120EE0BF07FDBDF38070B1A6E62
:1005400020EE0BF079DBDF500F0BFAEC5DF076C19B
:100550001AF077C11BF00001E5515FEC62F076C143
:100560009AF077C19BF0B8EC48F0DEEC2DF0030177
:10057000ABDBA5D301016839E832070B030A06E0BB
:100580006839E832070B050A01E076D2E3C079F159
:10059000E4C07AF1020E0301121901E0EDD048DB4C
:1005A000AADA03016251DE1809E16351DE1806E19F
:1005B0006451DE1803E16551DE18D8A4DDD004A52E
:1005C000DBD079C11AF07AC11BF0AEEC4DF0000916
:1005D00004E1030155DBFDEF4AF07DDADECFE6F002
:1005E000B5DA010E6B6F6FEC37F0D3DA8EDA100EDE
:1005F0001E6E64EC4CF09ADA64EC4CF0660E00016E
:10060000C26F030EC36FCA0ED7DAF6EC10F0C5DA6C
:100610007CDA040E1E6E64EC4CF0E0DAE4EC54F08C
:100620007BDA6B517219D5E16C517319D2E16D51BE
:100630007419CFE16E517519CCE155DA0E51DE5CBB
:100640000F51DE5822E347DA0EDB0E510001E65F60
:1006500003010F513EDB905D0001E7510301915909
:100660000EE20001F751F811B4E0946B956B966BB4
:10067000060E976F01D8ADD70500FA6E76D02BDA4B
:10068000DECF0EF3DDCF0FF313D025DADE50DE1010
:100690000AE103010E2907E10F2905E10E6B0F6B3B
:1006A000104B112B05D00001F751F811DEE191D765
:1006B00003010E2907E10F2905E1102903E11129A2
:1006C00001E1F1D702510F0B080A08E1D651CEEC37
:1006D00060F00301D751CEEC60F007D002510F0B50
:1006E000030A03E1D751CEEC60F0CFDA09DAEAD998
:1006F00090DA03E1E751E91925E069DA666F000154
:10070000E34BE42BE551F40F0101786F190E6A6F8A
:10071000E3C09AF09EDA9C6F010E9D6F0EC39EF0AF
:100720000FC39FF010C3A0F011C3A1F0760EA26F0B
:10073000030E1BDA010EA76F05EC24F0FF0EE32574
:1007400080DA01D0B2DA03010383F00E6CDA01E142
:1007500040D770C194F071C195F078C196F0010E48
:10076000976F01D836D70500FA6EF751FD6EF85134
:10077000FE6EFF6AFA5012005BDABDD903011E510A
:10078000DE1809E11F51DE1806E12051DE1803E1F1
:100790002151DE1809E0000E85EC44F0020E030141
:1007A000121901E116D7120096D9DECFE6F0CED9A4
:1007B0006B6B010E6FEC37F0ECD9A7D9100E1E6EE3
:1007C00064EC4CF0B3D964EC4CF036EC0FF0F4D997
:1007D000F6EC10F0E2D999D9040E1E6E64EC4CF0E0
:1007E000FDD9E4EC54F098D96B51721909E16C51C0
:1007F000731906E16D51741903E16E51751904E026
:10080000000E85EC44F0CAD76ED90A51DE5C0B515C
:10081000DE5827E360D927DA0A510001E65F0301B9
:100820000B5157DA8E5D0001E75103018F5916E233
:100830000091F00EF8D90FE0B3EC44F0DFEC3CF09F
:1008400001D809D00500FA6EF751FD6EF851FE6E21
:10085000FF6AFA5012000301039323D03CD91BDA3C
:1008600013D039D9DE50DE100BE103010A2908E16B
:100870000B2906E130D90FDA03010C4B0D2B04D004
:10088000000E85EC44F08AD7336A326A0101B96BF5
:1008900003010A2909E10B2907E10C2905E10D29CA
:1008A00003E10483020E7CD702510F0B030A03E11C
:1008B000D751CEEC60F0010E0301CA6F79C11AF076
:1008C0007AC11BF010EC58F00101FCD81DE0FAD8F9
:1008D00079250001E66FEED9E76F080EE625D96E9F
:1008E000000EE721DA6EDF5010E0080E01017925D5
:1008F0000001866FDFD9876F0101E4D80001886F9E
:10090000C2EC1DF0CDD901D0C0D9FAD8DBD881D93D
:1009100003E1E751E9194FE05AD9666F0001E34B53
:10092000E42B0101CFD80001E66FE651E55DF40F3D
:100930000101786FC7D8190F6A6F66510EE0E3C0E6
:100940009AF087D91AD958EC0FF00FD9A76B05EC9C
:1009500024F0FF0EE32575D92FD00001D1D8B2D8ED
:100960000001E86FE96B0D0EE827000EE923E65160
:10097000E85DE951800AEA6FE751800AEA591BE213
:10098000E3C09AF0E4C09BF0010178050001F5D8BE
:1009900054EC0FF0EAD8A76B05EC24F0010192D8D3
:1009A0000AE1E3C086F0E4C087F078050001886FB3
:1009B000C2EC1DF075D979D9010E0301CA6FC26B63
:1009C000C36BE06B0099038300A133D0010120EEDB
:1009D00005F091D8DFAA2AD00301009110D90DE0CB
:1009E000E0D801D80AD00500FA6E0001F751FD6E7B
:1009F000F851FE6EFF6AFA5012000301039302BB26
:100A000000BBCCD600B302D000A7C8D6EED847ECC6
:100A100034F0000908E1000E21D9C7EC32F00009DA
:100A200001E0BCD65BD160EC62F0B8D6B6EC4BF01E
:100A3000B5D6E5D80DE0B5D801D80AD00500FA6ED4
:100A40000001F751FD6EF851FE6EFF6AFA50120078
:100A5000030102BB00BBA2D600B302D000A79ED602
:100A6000C4D847EC34F00009DEE1000EF7D8C7EC3B
:100A700032F00009D7E092D6000E85EF44F0000175
:100A8000F751F811D8B4120015EC62F00001E66FCE
:100A9000E6B70CD0EED8030E976F0500FA6EF7514B
:100AA000FD6EF851FE6EFF6AFA501200E2D8020E97
:100AB000976F0500FA6EF751FD6EF851FE6EFF6AF2
:100AC000FA50120020EE05F07951D9267A51DA2237
:100AD000DF500F0B1200010120EE06F07951D926EC
:100AE0007A51DA22120020EE06F07951D9267A5195
:100AF000DA22030112007951D9267A51DA22120042
:100B0000E551E66FE76B010112001B6ECA0E1C6E09
:100B1000020E1D6E1F6A120065C06BF166C06CF19B
:100B200067C06DF168C06EF101011200090E1A6E06
:100B30000B0E1B6EE3C01CF0E4C01DF0FC0E0001A8
:100B4000E5251E6E1F6AFF0E1F22FF0CDDCFE7F0AA
:100B5000E6C065F0E7C066F00001676B686BE551C1
:100B6000FC0F696F490E6A6F490CA36F6AC1A4F04C
:100B7000F90EA56F0A0EA66F12009C6F010E9D6FF5
:100B80000AC39EF00BC39FF00CC3A0F00DC3A1F0ED
:100B9000010CF90E1A6E0A0E1200720E1A6E010E78
:100BA00012000301009B70C194F071C195F078C1EF
:100BB00096F067C197F01200C46F020EC56FF90E70
:100BC000C66F0A0EC76FE5510C0FC86F1200E3C065
:100BD000D9FFE4C0DAFFDF5001011200E3C065F085
:100BE000E4C066F0E5C067F01200010E0001796F05
:100BF000690E7A6F010E7B6F0301DF511200010E47
:100C00000101676FF00E030102170001F751F8119F
:100C100012000001E86FE96B0C0EE827000EE923D3
:100C2000E651E819120002170001F751F8111200FD
:100C3000010120EE01F012007651D9267751DA2217
:100C400012000101706FFF0E0001E4210101716FBC
:100C50001200E4C09BF0780500011200DC6BDD6B34
:100C6000DE6BDF6B1200DECFE6F0DDCFE7F00301D5
:100C70001200E3C094F0E4C095F0E5C096F01200D5
:100C80000251F00B0909026F1200080E0001E32760
:100C9000000EE423000CDECF0AF3DDCF0BF31200CD
:100CA00086C0E3F087C0E4F012000101786B706B3E
:100CB000716B1200000E01017A21000112000A6B13
:100CC0000B6B0C6B0D6B1200066B076B086B096BE3
:100CD00012000001E75BE6510301120003010097D7
:100CE0001200C0EC36F08FEC2FF0F1D94DEC2EF065
:100CF0000101D55162EC30F00101D20501E06FD164
:100D0000C8C11CF0390E3FEC5FF0DCC176F0010E7B
:100D1000000176170101D890DB350001776F0101E2
:100D2000D439DED91D0E3FEC5FF075C076F0030EAE
:100D300000017617D6C177F0010E7717D890773774
:100D4000D89077370101D339CBD91E0E3FEC5FF035
:100D50000101D851D9113FE0D8C179F0D9C17AF059
:100D600000017B6B7C6B21D0A9D97D0E0001A1D93C
:100D700038EC51F00FD0A2D9FA0E00019AD938EC14
:100D800051F008D09BD9F40E0001696F010EBDD956
:100D900038EC51F065C079F066C07AF067C07BF03E
:100DA00068C07CF00BD0A2D909D00101D451070A48
:100DB000DBE00F0AE0E0010AE5E0F5D70101D32905
:100DC0000001766F05D0D8907C337B337A3379334A
:100DD000762FF9D701D08AD979C01CF0240E3FECC8
:100DE0005FF074C01CF01F0E3FEC5FF0260E27EC86
:100DF0005EF000017D6F0C0E0101D31906E1070EB4
:100E0000D41909E0080ED41906E00B0ED31906E137
:100E1000070ED41903E100017D8702D000017D9700
:100E20007D857DC01CF0260E3FEC5FF0310E27EC77
:100E30005EF000017D6FF80E7D17030E7D135CD907
:100E40003FEC5FF00A0E1C6E370E3FEC5FF0120EA7
:100E50000101EB1925E1070ED41903E0080ED4199E
:100E600012E1310E27EC5EF000017D6F7D9F44D9C9
:100E70003FEC5FF0400E1C6E2F0E3FEC5FF01C6AE3
:100E8000300E3FEC5FF0090E0101D41909E1310E7B
:100E900027EC5EF000017D6F7D8F2ED93FEC5FF077
:100EA000330E27EC5EF000017D6F7D9D7D81DAC100
:100EB00076F0010E7617060E776FD8907637772F7B
:100EC000FCD776517D137DC01CF0330E3FEC5FF0F4
:100ED000DAC176F0010E00017617D8907637D890F7
:100EE0007635FF0A1D0B7D6F7DC01CF03B0E3FEC7D
:100EF0005FF00101C7511C6E200E3FEC5FF0C6C1D0
:100F00001CF0210E3FEC5FF01C6A0D0E3FEC5FF011
:100F10001C6A0E0E3FEC5FF01C6A0F0E3FEC5FF098
:100F2000120E0101EB1957E1090ED4191AE1800ED6
:100F3000BA5D130EBB59610EBC59330EBD5911E396
:100F4000BA05F70EBB59CB0EBC593C0EBD5909E290
:100F5000D6D83FEC5FF0640E1C6E3A0E3FEC5FF0AB
:100F600023D0090ED4191BE1800EBA5D1A0EBB59AD
:100F7000700EBC59180EBD5912E3410EBA5DDD0E5C
:100F8000BB594A0EBC591F0EBD5909E2B8D83FECF7
:100F90005FF07F0E1C6E3A0E3FEC5FF005D0030E43
:100FA0001C6E360E3FEC5FF0090E0101D4190BE107
:100FB000DA0509E1A7D83FEC5FF0190E1C6E3B0E75
:100FC0003FEC5FF008D09ED83FEC5FF01D0E1C6E2A
:100FD0003B0E3FEC5FF01C68120E3FEF5FF0BEC1AE
:100FE00068F0BFC169F0C0C16AF0C1C16BF02CEC00
:100FF0004BF0C2C168F0C3C169F0C4C16AF0C5C199
:101000006BF011EC4AF00101C7511C6E250E3FEC4C
:101010005FF0C6C11CF0260E3FEC5FF00A0E27EC15
:101020005EF000017D6F9F0E7D170101EF39E846EC
:10103000E00B00017D137DC01CF00A0E3FEC5FF059
:10104000C80E00017D6F0101D65102E000017D89CB
:101050007DC01CF0300E3FEC5FF00001786B0ED0CD
:10106000C90E7825D96EDA6A010EDA22DF501C6EBD
:101070007851280F3FEC5FF00001782B0101D1512E
:101080000001785DEDE30101D15107E0D1051009C0
:101090001C6E270E3FEC5FF004D01C6A270E3FEC5D
:1010A0005FF01C683E0E3FEC5FF01C683F0E3FEFA8
:1010B0005FF0696F6A6B6B6B6C6B120079C065F0E7
:1010C0007AC066F07BC067F07CC068F01200BAC1DD
:1010D00068F0BBC169F0BCC16AF0BDC16BF0120021
:1010E000F00B0001771176111C6E12000001796B74
:1010F0007A6B7B6B7C6B12007DC01CF0310C020E96
:101100001C6E360C650E1C6E3A0C6A6F6B6B6C6B4A
:101110001200E5C0D9FFE6C0DAFFDECFEAF0DDCF8E
:10112000EBF0000120EE02F0AFD9DECFECF0DDCF26
:10113000EDF0010EEE6FEF69EAC098F0EBC099F0A8
:10114000FDEC31F0EF6FEFBF8BD1F06B070EF06568
:1011500001D086D1F051020D480EF324D96E020E53
:10116000F420DA6EDECF1AF0DDCF1BF0ECC01CF0FD
:10117000EDC01DF057EC40F01A501B1001E06DD18E
:10118000DF0EEF257DD910EC20F0F5CFE7F0F0C0B1
:10119000E8F0010EE96FE82B02D0D890E937E82F8C
:1011A000FCD70001E951E71501E157D1EE6B26D1DB
:1011B0000F013891929051D10F01389192804DD109
:1011C00092800F01388149D1F051F2E0010AF4E038
:1011D000030AF6E012D00F01389392923ED10F012C
:1011E000389392823AD192820F01388336D1F051EE
:1011F000F2E0010AF4E0030AF6E0010A2ED10F0141
:10120000389592942AD10F013895928426D19284F0
:101210000F01388522D1F051F2E0010AF4E0030A0F
:10122000F6E0EBD70F013897929617D10F01389758
:10123000928613D192860F0138870FD1F051F2E0D8
:10124000010AF4E0030AF6E0D8D7929806D1928812
:1012500004D1F051FAE0010AFAE0020AFED00F01CF
:10126000389B929AFAD00F01389B928AF6D0928AD4
:101270000F01388BF2D0F051F2E0010AF4E0030ADA
:10128000F6E0BBD70F013C919690E7D00F013C915F
:101290009680E3D096800F013C81DFD0F051F2E0E0
:1012A000010AF4E0030AF6E0A8D70F013C939692F6
:1012B000D4D00F013C939682D0D096820F013C830C
:1012C000CCD0F051F2E0010AF4E0030AF6E095D741
:1012D0000F013B959594C1D00F013B959584BDD0EE
:1012E00095840F013B85B9D0F051F2E0010AF4E09A
:1012F000030AF6E082D70F013C959694AED00F0119
:101300003C959684AAD096840F013C85A6D0F051D6
:10131000F2E0010AF4E0030AF6E06FD70F013A9B0E
:10132000949A9BD00F013A9B948A97D0948A0F018C
:101330003A8B93D0F051F2E0010AF4E0030AF6E0B0
:101340005CD70F013B9B959A88D00F013B9B958AF8
:1013500084D0958A0F013B8B80D0F051F2E0010AD6
:10136000F4E0030AF6E049D70F013B9F959E75D044
:101370000F013B9F958E71D0958E0F013B8F6DD0E5
:10138000F051F2E0010AF4E0030AF6E036D70F016B
:101390003B9D959C62D00F013B9D958C5ED0958CBA
:1013A0000F013B8D5AD0F051F2E0010AF4E0030A3C
:1013B000F6E023D7929E51D0928E4FD0F051FAE0B2
:1013C000010AFAE04AD7929C48D0928C46D0F0515C
:1013D000FAE0010AFAE041D7939E3FD0938E3DD0C8
:1013E000F051FAE0010AFAE038D7939C36D0938C9A
:1013F00034D0F051FAE0010AFAE02FD7EF5101E1C1
:10140000E3D6010A01E1F3D6030A01E104D7010A98
:1014100001E114D7070A01E11CD7010A01E12BD72A
:10142000030A01E13BD7010A01E14BD70F0A01E1B1
:101430005BD7010A01E16BD7030A01E17BD7010AFF
:101440008CE0070A9DE0010AAEE0030AB7E0010A5A
:10145000BEE01F0AC5E0010ACCE00001F02B76D601
:10146000EE5140EC1FF0DECFE7F0DDCFE8F020EEEC
:1014700006F00AD8E7C0DEFFE8C0DEFFDD6A120032
:10148000F66EF76AF60E1200E551D926E651DA2219
:101490001200070E7B6F7C6B010E716F786F726BA1
:1014A000736B6707D8A0680776D1050E67256B6F49
:1014B000000E68216C6F69516B5D6A516C5922E2B4
:1014C00020EE05F06751D9266851DA22DF506D6FA2
:1014D000030E6D1901E05FD1712B040E67257D6F3E
:1014E000000E68217E6F72D9DF38070B1BEC5FF0AE
:1014F000000902E00001786B050E00016727000E6D
:10150000682349D16FD9DF500F0B746F67C0D9FFC3
:1015100068C0DAFFDF506B6F6B390F0B776F62D9E2
:10152000DECF75F0DDCF76F075C079F076C07AF059
:10153000020E6727000E682367C07DF068C07EF04A
:10154000674B682B030102ADDAD00001785101E14D
:101550008FD03CD9DF38070B1BEC5FF000095CE053
:1015600087D034D9DF38070B6B6F6B39F00B706F96
:101570007051100F6E6F70C07FF023D07F511ED955
:101580002AD90BE279B103D079517A1106E17F5162
:1015900015D9DF500F0B00017B6F7F510FD92DD96B
:1015A0007C610BD079B103D079517A1106E17F517A
:1015B00005D9DF380F0B00017C6FD8907A3379336F
:1015C0007F2B6E517F5D39E2D9D7040E7C6F35D009
:1015D000040E7B6F7C6F755176112FE1786B2DD0E7
:1015E0007F6B3F0E7F6501D013D07F51E7D8F3D8D2
:1015F00003E27F51E3D8FDD87F51E0D8DF380F0BED
:1016000000017C6103D07F51D9D8FBD87F2BE9D76B
:1016100075517611DAE111D0D9D80001DF38070B06
:10162000A0E0010A9EE0030A9CE0010A9AE0070A92
:10163000CCE0020AD5E0010ACBE07F6B460E7F6565
:1016400001D016D07F5145EC44F0DE040FE17F510C
:10165000B5D8C1D803E27F51B1D8CBD87F51AED82D
:10166000CCD87C6103D07F51A9D8CBD87F2BE6D7CB
:1016700000017751A4EC60F0000909E100017B5101
:10168000775D05E377517C5D02E3010E736F0B0E0E
:101690000001746109D0010E726F050E746102D0F1
:1016A0006F6F02D074C06FF0725118E0735116E082
:1016B000785114E075C062F076C063F087D8DF38E7
:1016C000070B646F42EC42F000016F51C1EC61F016
:1016D0000301038900017751E5EC61F077D800013F
:1016E000DF500F0B03E10301C86B07D06FD8DF5049
:1016F0000F0B6B6F6B050301C86F038B47D00001A5
:10170000786B44D00301985151D8000178B103D0CF
:101710000301DF9002D00301DF80985147D8000118
:1017200073B103D00301DF9202D00301DF8298512D
:101730003DD8000172B103D00301DF9402D0030150
:10174000DF84100E986122D0000171511FE0030167
:10175000982B98512BD8DF90985128D8DF92985128
:1017600025D8DF94985122D8DF9698511FD8DF985A
:1017700098511CD8DF9A985119D8DF9C985116D8E7
:10178000DF9E985121EC18F0030EDF6E0001710707
:10179000712907E0B7D76951675D6A51685901E25D
:1017A00084D667C067F068C068F01200020D9B0E17
:1017B000F324D96E030EF420DA6E1200020D010E2E
:1017C000F324D96E050EF420DA6E12007DC0D9FF25
:1017D0007EC0DAFF1200DF500F0B00016B6F7B51F0
:1017E0006B5D1200674B682B67C0D9FF68C0DAFFDA
:1017F0001200DF500F0B7B6F1200DF380F0B000160
:101800001200DF380F0B7C6F12007E6B7F6B776BE3
:10181000786B010E1B6E0B0E1A6E1C68A5EC56F051
:10182000010E1B6E0C0E1A6E1C68A5EC56F0C4C29D
:101830007AF1C5C27BF101017C6B7D6B7B5177270F
:10184000000E78231B6A1A6A7BC11CF0A5EC56F0C7
:1018500001017E4B7F2B7A516FD97AC11CF0A5EC28
:1018600056F001017E4B7F2B7A0E1A6E010E1B6E15
:10187000790E1C6E010E1D6E65EC5CF00101806B33
:1018800063D95AD961D91C6EA5EC56F070D9030EF4
:101890008065F6D7795150D979C11CF0A5EC56F086
:1018A00001017E4B7F2B0CEC62F056D945D979C1F2
:1018B0001CF0A5EC56F001017E4B7F2B53EC60F041
:1018C0001AC07AF11BC07BF11CC07CF11DC07DF1F8
:1018D000806B3AD931D938D91C6EA5EC56F047D96E
:1018E000030E8065F6D76EEC60F01AC07AF11BC06B
:1018F0007BF11CC07CF11DC07DF1806B25D91CD90A
:1019000023D91C6EA5EC56F032D9030E8065F6D7AC
:10191000660E0001656F010E666FCDEC5DF0010192
:10192000806BF3D8A5EC56F022D9070E8065F9D765
:10193000660E0001656F010E666F84EC5FF00101B9
:10194000806BE3D8A5EC56F012D9070E8065F9D765
:10195000660E0001656F010E666F79EC5FF00101A4
:10196000806BD3D8A5EC56F002D90F0E8065F9D75D
:10197000660E0001656F010E666F63EC5FF001019A
:10198000806BC3D8A5EC56F0F2D80F0E8065F9D75E
:10199000660E0001656F010E666F6EEC5FF001016F
:1019A000806BB3D8A5EC56F0E2D80F0E8065F9D75E
:1019B00077EC60F01AC07AF11BC07BF11CC07CF19F
:1019C0001DC07DF1806BC0D8B7D8BED81C6EA5EC09
:1019D00056F0CDD8030E8065F6D7660E0001656F10
:1019E000010E666FBEEC5DF00101806B8ED8A5EC38
:1019F00056F0BDD80F0E8065F9D7660E0001656FF1
:101A0000010E666FAFEC5DF00101806B7ED8A5EC36
:101A100056F0ADD80F0E8065F9D765EC60F01AC0AE
:101A20007AF11BC07BF11CC07CF11DC07DF1806B85
:101A30008BD882D889D81C6EA5EC56F098D8030EA6
:101A40008065F6D7A9EC61F087D876D879C11CF00B
:101A5000A5EC56F001017E4B7F2B766B470E766529
:101A600001D01AD0765161EC5EF076D865D879C194
:101A70001CF0A5EC56F001017E4B7F2B765153EC08
:101A80005EF06AD859D879C11CF0A5EC56F0010176
:101A90007E4B7F2B762BE2D709EC62F05DD84CD8D9
:101AA00079C11CF0A5EC56F001017E4B7F2BB1EC07
:101AB00061F052D841D879C11CF0A5EC56F0010173
:101AC0007E4B7F2B772904E1782902E1776B786BD5
:101AD0007EC11AF07FC11BF077C11CF0A5EC56F057
:101AE00001017E4B7F2B7EC11AF07FC11BF078C1B4
:101AF0001CF0A5EC56F001017E4B7F2B000120EE7F
:101B000006F0E551D926E6512BD0660E8025D96E18
:101B1000DA6A010EDA22DF507727000E78237EC1C1
:101B20001AF07FC11BF0660E8025D96EDA6A010EAD
:101B3000DA22DF501C6E12007727000E78237EC158
:101B40001AF07FC11BF0000C7A0E8025D96EDA6A7C
:101B5000010EDA22DF5012000101796F7951120073
:101B6000DA2200C2DEFF01C2DEFFDD6A12000101DF
:101B70007E4B7F2B802B1200D76F100E0001DB6F86
:101B8000D96B010E7CEC52F0D80ED56FD5C0E6FFB4
:101B9000E66AC9EC41F055D9C9EC41F0100E7CEC75
:101BA00052F0BEEC37F0C9EC41F00001D70507E177
:101BB000D8511F0B8009D86F0301008104D0D85180
:101BC0001F0B4009D86FFC0E0001D817E30ED81781
:101BD000EA0E5CD9D8C0DFFFDB2BEA0E2CD9B3ECC0
:101BE00037F0A3EC37F064EC4CF0040E0001DB2777
:101BF000DA6B030102AD30D00001DA8F0301D1515D
:101C0000DD5D29E20001DA8D03010089C24BC32B9F
:101C10009451C219C31102E1E06B1AD09451000132
:101C2000D56FD66B0301C2510001D55D0301C351CD
:101C30000001D6590EE20301E02B9551E05D0CE363
:101C4000E06B8CEC41F0000907E10301C26BC36B50
:101C50000001DA9D03010099030100A304D00001F3
:101C6000DA8B030100930001DA9903019951981965
:101C700007E10001D351D41103E1F00EDA1723D0AC
:101C800003019951981916E1F00E0001DA1733504B
:101C900002E002D911D9325007E0DA510F0BD56FAB
:101CA000D52BDA51D51908D90101B9510CE0000141
:101CB000F3D808D00001D351D41105E07AEC3BF001
:101CC000D56FDA19F9D8EA0E0001E0D8DAC0DFFFE3
:101CD000DB2BEA0EB0D8060E1C6E030E1D6E1F6ABB
:101CE000020E1E6E64EC4CF0020E0001DB270301B5
:101CF000995198190FE00001D351D4110BE0EA0E6D
:101D00001A6E090E1B6EDB0E1C6E010E1D6E3CEC76
:101D100017F018D003019951981914E1335008E0D5
:101D2000EA0E1A6E090E1B6EDB0E1C6EE3EC58F009
:101D3000325008E0EA0E1A6E090E1B6EDB0E1C6EA6
:101D4000B3EC5BF0EA0E0001A1D8D0C0DFFFDB2BC3
:101D5000D351D4111AE0EA0E6ED8D1C01CF0D2C013
:101D60001DF0D3C01EF0D4C01FF064EC4CF0D1C005
:101D70009AF0D2C09BF0D3C09CF000016DD898D8E7
:101D80007CD805EC24F0D3511AD00301995198194D
:101D900017E0F90E1A6E0A0E1B6ED90E1C6E1D6A24
:101DA0003CEC17F0F90E00019A6F0A0E9B6FD9C038
:101DB0009CF052D879D861D805EC24F0D951DB27B2
:101DC00006C365F007C366F008C367F009C368F08F
:101DD0000001DB51F00F696F490E6A6F000E6B6BEB
:101DE0006FEC37F0EA0E1A6E090E85EC05F0100E56
:101DF0001E6E64EC4CF03AD8C46F020EC56FEA0E4A
:101E0000C66F090EC76FDBC0C8F0F6EC10F0EA0E23
:101E1000000111D8AAEC4DF0A3EC37F064EC4CF0C3
:101E2000040E0001DB27F00EDB250301C66FC76B34
:101E3000FF0EC723FF0CDB251A6E1B6A090E1B223F
:101E400012000F0EE66E010EE66EE66AE66AEA0E14
:101E5000E66E090EE66E12009D6B06C39EF007C388
:101E60009FF008C3A0F009C3A1F01200220E0001E8
:101E7000C26F030EC36FCA0E1200A36FDBC0A4F0C3
:101E8000EA0EA56F090EA66FA76B1200DB25D96EAF
:101E9000DA6A090EDA221200DA510F0BD56F020E40
:101EA000D527DA51D5191200220EA26F030E1200A7
:101EB000320EA26F030E1200F00BD519DA6F12006A
:101EC0000001866B876B8F6B906B1B6A1A6A57ECED
:101ED0005FF06AD98EC083F0846B8351846F836B0B
:101EE00079D957EC5FF060D98E518327000E842397
:101EF00083513AEC61F083C088F084C089F000011E
:101F0000916B91518A0F5FD957EC5FF046D93DD95B
:101F1000030E9165F6D75ED957EC5FF045D98AC0BC
:101F20006CF08BC06DF08CC06EF08DC06FF08EC009
:101F300070F035EC53F04ED957EC5FF035D98E5137
:101F4000D9EC55F00001916B91518A0F3CD957ECB7
:101F50005FF023D91AD9030E9165F6D78AC01AF01B
:101F60008BC01BF08CC01CF08DC01DF092EC60F09B
:101F7000916B91518A0F27D957EC5FF00ED905D993
:101F8000030E9165F6D78AC01AF08BC01BF08CC087
:101F90001CF08DC01DF09BEC60F0916B9151730FA4
:101FA00012D957EC5FF0DF6E08D9EFD8070E9165B4
:101FB000F5D788A105D0730E656F666BDBEC5BF01F
:101FC0000001916B9151730FFED857EC5FF0DF6EFB
:101FD000F4D8DBD8070E9165F5D788A305D0730E2A
:101FE000656F666B61EC5AF00001916B9151730F54
:101FF000EAD857EC5FF0DF6EE0D8C7D80F0E9165D6
:10200000F5D788A505D0730E656F666B2BEC5CF079
:102010000001916B9151730FD6D857EC5FF0DF6ED2
:10202000CCD8B3D80F0E9165F5D788A905D0730E1B
:10203000656F666B4AEC5AF00001916B9151730F1A
:10204000C2D857EC5FF0DF6EB8D89FD80F0E9165FD
:10205000F5D788AB05D0730E656F666B17EC5CF037
:10206000BED891518A0FAFD857EC5FF096D88DD873
:10207000030E9165F6D788A70AD08AC01AF08BC0E4
:102080001BF08CC01CF08DC01DF033EC5FF0000124
:10209000916B9151730F97D857EC5FF0DF6E8DD82D
:1020A00074D80F0E9165F5D788AF05D0730E656FA4
:1020B000666B18EC5EF00001916B9151730F83D841
:1020C00057EC5FF0DF6E79D860D80F0E9165F5D7C9
:1020D00089A105D0730E656F666B09EC5EF07FD841
:1020E00091518A0F70D857EC5FF057D84ED8030E35
:1020F0009165F6D788AD0AD08AC01AF08BC01BF064
:102100008CC01CF08DC01DF0B0EC5FF063D857ECB4
:102110005FF04AD88E51B1EC5CF00001856B470E40
:10212000856501D018D056D857EC5FF03DD88E5158
:10213000010ED8B4000E1E6E85513AEC5BF04AD801
:1021400057EC5FF031D88EC01DF08551C4EC5CF0C7
:102150000001852BE4D73ED857EC5FF025D88E518F
:10216000EFEC5BF037D857EC5FF01ED88E514BEC9C
:102170005FF00001862904E1872902E1866B876B05
:1021800086C071F087C072F01200D96EDA6ADF5033
:102190008627000E8723912B000CDF6E00018F4BEA
:1021A000902B91518A0F120000018E6F8F4B902B54
:1021B0008E518627000E8723000C00018F4B902B39
:1021C0009151730F1200D96EDA6A8FC01AF090C065
:1021D0001BF012008FC01AF090C01BF0120000011B
:1021E0008A6B8B6B8C6B8D6B916B12000101656B35
:1021F000646B626B606B616BC2C09AF0C3C09BF092
:10220000100E00019C6F010E9D6F000E9E6F010E5F
:102210009F6FABEC2BF0C851C96FCA6B0F0EC9276B
:10222000000ECA23040ECB6FCA35CA33C933CB2F75
:10223000FBD7C9510101636F635104E1010E636F64
:10224000626B0AD0C8C0C9F00F0E0001C917010E99
:10225000D8A4000E0101626F62052EE1646B635128
:10226000100DF350F00F656F18D0200E010164259A
:1022700024D9100E6425E96EEA6A010EFAD801012C
:1022800065510001C625E96E000EC721EA6EEF50C8
:10229000C919DF6E0101642B652B6351C6D801019A
:1022A000655107D9C951CB5DCC51800ACD6FCA5158
:1022B000800ACD5940E2D9D70001C851C625C96F5F
:1022C000000EC721CA6FC8510F0BC95D0101606FB5
:1022D0000001CA51D8A0CA050101616F656BDFD842
:1022E00065610CD065516025D96E000E6121DA6EF2
:1022F000300EC4D8EA22DFCFEFFF09D0D0D865195D
:1023000004E1B0D8800EDF6E02D0ACD8DF6A652B56
:102310000F0E6565E4D7656B200E6525CED8000EDF
:102320006525E96EEA6A010EA4D8300E0101A6D82F
:1023300089D86565F1D7100E7CEC52F0500EE66E30
:10234000010EE66EC9EC41F00101656B34D001016C
:10235000646B400E6425A8D8655167D8C6C0CBF021
:10236000C7C0CCF090D864510001CB25E96E000EB7
:10237000CC21EA6EEF50CD6F500E010164256ED86E
:10238000EA22EF500001CD19DF6E0101642B0F0E20
:102390006465DFD7500E1A6E010E1B6E5BD840D8F5
:1023A00064EC4CF0500E0001866F010E72D8C7EC41
:1023B0005BF00101652B0001C969CA690101635124
:1023C00078D861D865510001CD6FCE6BCB51CD5D12
:1023D000CE51800ACF6FCC51800ACF59B8E30101AA
:1023E000656B400E652560D8200E6525E96EEA6AAA
:1023F000010E3FD8500E0101652530D823D8656500
:10240000F0D7400E0001866F010E43D8C7EC5BF099
:10241000C4C01AF0C5C01BF01DD802D864EF4CF040
:102420001D6E1F6A100E1E6E100C0001C96FCA6B64
:10243000C93BCA3BF00ECA17C9510F0BCA13F00EA5
:10244000C917F00CEA22EF500001C919DF6E010133
:10245000652B0F0C400E1C6E010E1200E96EEA6A2D
:10246000010E1200300E6525D96EDA6A010EDA22ED
:102470001200EA22EF500001C96F12006525E96ED3
:10248000EA6A010E1200C951CB27CA51CC230101BF
:102490001200876FC2C088F0C3C089F0120000012B
:1024A000C8510F0B01011200D96EDA6A010EDA224F
:1024B00012000001CB6FCC6B1200D96EDA6A010EEC
:1024C000DA2212000001746F736B756B080E7419B9
:1024D0002EE127EED4F0DE50DE10D8B4120026D95B
:1024E0008F0E6A25D96E050E6B21DA6EDF5014E16E
:1024F000D3C7E8FFFF0FE8CFD3F70DD9DECFD6F76C
:10250000DDCFD7F708D9DE6ADD6A27EED3F0DF50DA
:1025100014D9DE6ADD6A05D027EED6F0DE06000E9D
:10252000DD5A27EED4F0DE06000EDD5A000C27EE51
:10253000D4F0250EDE5C020EDE5844E2200E741943
:1025400043E127EED3F0060EDF603CD0EFD810D980
:10255000000EDF6A27EED4F0DE2ADD2227EED6F069
:1025600007EED3F0EF50020DB60EF324E96E070E1E
:10257000F420EA6EDECFEEFFDDCFEDFF6A696B6916
:1025800027EED6F0FCD827EED4F0DECF6EF0DDCF0C
:102590006FF06C516E5F6D516F5B6A516E276B51BE
:1025A0006F2327EED3F0DF50C8D86EC0DEFF6FC0B8
:1025B000DDFFD3C7E8FF010FE8CFD3F7000E81ECB2
:1025C00052F083D0736981D0B1D8D2D874C0DFFF04
:1025D00027EED4F0DE2A000EDD2227EED6F0DE2A2A
:1025E000DD2290D843EC54F027EED4F01A50DE5C94
:1025F0001B50DE5834E3010E0001756F83D843ECA5
:1026000054F01A500001766F26D090D8900E6C6F5F
:10261000050E6D6F76516C5F000EA2D8DF506E6FA5
:1026200071D843EC54F0E50E00016F6FFF0E706F30
:102630001A506F271B50702376516F5F000E705B2E
:102640006FC0F6FF70C0F7FFF86A0800F5506E190A
:1026500001E0756B7607765102E07551D6E1000115
:10266000755133E063D84ED843EC54F0900E00011E
:102670006C6F050E6D6F1A506C5F1B5071D8DF6A5E
:1026800041D843EC54F027EED6F05FD81A50000141
:102690006A5F1B506B5B3FD86AC0DEFF6BC0DDFF1B
:1026A00027EED6F052D827EED4F069D86A516C5F85
:1026B0006B516D5B27EED3F0DF503FD86CC0DEFF6F
:1026C0006DC0DDFF010EE8CFD2F77329D8A4120048
:1026D00062EC52F064C21AF065C21BF0B4EC14F064
:1026E00043EC54F01AC071F01BC072F064C260F089
:1026F00065C261F000012ED871C063F072C064F051
:1027000096EF40F0E50E1A6EFF0E1B6E1A10D8A45D
:10271000000E1C6E120027EED3F0DF50020DB60E35
:10272000F324D96E070EF420DA6E120027EED4F0EF
:10273000DECF6AF0DDCF6BF01200020DC40EF32481
:10274000D96E070EF420DA6E1200DECF6AF0DDCF0C
:102750006BF0120060516111D8A4000E626F12007C
:102760006D5B6A516C25D96E6B516D21DA6E12006A
:10277000900E6A25D96E050E6B21DA6E1200DECF3F
:102780006CF0DDCF6DF01200D8D0010E966554D0FC
:1027900025D922C21CF023C21DF0A8EC59F0DBD8C9
:1027A00043EC54F0F2D8806F070EA321816F94C0E0
:1027B000D9FF95C0DAFFDF50826F09EC36F088EC64
:1027C00057F0C9D843EC54F0E0D8FBD8A24BA32B68
:1027D0009869996996519A6F9B6B98519A2799516C
:1027E0009B23120E9C6F020E9D6FA2519C5FA35102
:1027F0009D5BD8909D319F6F9C319E6F9A519E5DDD
:102800009B519F5903E2B6D8E3D806D0FF0E962518
:10281000A06FA16BFF0EA1239429886F000E952154
:10282000896FC0D815EC38F096D843EC54F0B5D881
:10283000C1D8D8A4200E0DD01EC21AF01FC21BF0A2
:1028400093D843EC54F0A9D81EC260F01FC261F0C7
:102850006ED0626FA4C063F0A5C064F096EF40F044
:10286000965125E0BBD820C21CF021C21DF0A8EC77
:1028700059F071D843EC54F088D8A3D8A24BA32BBD
:1028800079D89B6F98319A6F96519A5D000E9B593B
:1028900003E270D89DD803D096C0A0F0A16B94C07D
:1028A00088F095C089F07ED815EC38F0BDD71CC2F1
:1028B0001AF01DC21BF058D843EC54F06ED81CC25D
:1028C00060F01DC261F033D024C21AF025C21BF0A3
:1028D0004BD843EC54F061D824C260F025C261F0BB
:1028E00026D026C21AF027C21BF03ED843EC54F083
:1028F00054D826C260F027C261F019D028C21AF05D
:1029000029C21BF031D843EC54F047D828C260F0FC
:1029100029C261F00CD02AC21AF02BC21BF024D8B5
:1029200043EC54F03AD82AC260F02BC261F00001A7
:1029300060516111D8A4000E8CD79751D2E0010AE2
:1029400001E123D7030AC0E0010A8AE0070AD6E0C2
:10295000010AE1E01200D80E1A6E070E1B6E1A1063
:10296000D8A4200E1C6E12001A501B10D8A4000E02
:102970001C6E1200120E986F020E996FA251985F92
:10298000A351995BD890993112001AC0A2F01BC0D4
:10299000A3F0D80E0001A22512001AC0A4F01BC09B
:1029A000A5F01200D80EA2258A6F070EA3218B6F07
:1029B000A0511200D80E0001606F070E616F601108
:1029C0001200D96E070EA321DA6E200EDF6E200CE6
:1029D0009A6F9831A06F9AC0A1F01200D80E1A6EAB
:1029E000070E1B6E12008F6B74C2A2F175C2A3F1A9
:1029F000A251A311D8A4000EA46F926B2ED09251B5
:102A0000090DF3508125886FF4508221896F000EE3
:102A100083218A6F88C1F6FF89C1F7FF8AC1F8FF59
:102A200021EE93F0080E03D9FEE293C11AF094C18F
:102A30001BF085519DEC13F0DECF88F1DDCF89F1DD
:102A4000900E88251C6E050E89211D6E57EC40F0F6
:102A50001A501B1005E00101922B8451925DCFE3C7
:102A600001018451925D01E3ADD09551961197110A
:102A700001E09DD09851991101E1A4D09B51886F3C
:102A8000896B8551D3C78AF18AC18BF18C6B8B5FBF
:102A9000000E8C5B88518B1903E189518C19D8A4E5
:102AA00091D08529916F906B9B5114E0912B9105EA
:102AB000020DB60EF324D96E070EF420DA6EDE5046
:102AC000DE1003E1010E906F05D027EED3F0915197
:102AD000DE5CECE2905176E1090E7CEC52F09C0E4B
:102AE000E66E010EE66EC9EC41F001018551886F7A
:102AF000896B882B000E8923895114E1070E885DAC
:102B000011E280D8B80E8825D96E070E8BD80AE05E
:102B100079D8C60E8825D96E070E7BD89C6F050E16
:102B20008B219D6F8551886F896B020E85D814E1CA
:102B3000070E885D11E266D8BA0E8825D96E070E99
:102B400071D80AE05FD8C80E8825D96E070E61D803
:102B50009E6F050E8B219F6F8551886F896B030EC9
:102B60006BD814E1070E885D11E24CD8BC0E8825A5
:102B7000D96E070E57D80AE045D8CA0E8825D96EF7
:102B8000070E47D8A06F050E8B21A16F9C0E000188
:102B9000E56F010EE66F01D815D00500FA6E010150
:102BA0009851FD6E9951FE6EFF6AFA501200010EA7
:102BB0008F6F86C1D9FF87C1DAFF92C1DFFFA26B99
:102BC000A36BA46B0101A251A311A41118E0A2C12F
:102BD0001AF0A3C11BF0A4C11CF043EC54F01AC0BE
:102BE0008DF11BC08EF1A2C160F0A3C161F0A4C140
:102BF00062F08DC163F08EC164F096EC40F001018B
:102C00008F5112008551886F896BD890883789372A
:102C100012008921DA6EDECF8AF1DDCF8BF1900EC2
:102C20008A2512008921DA6EDE50DE1012000900BA
:102C3000F5CFDEFFE80612008827000E89238951B0
:102C40001200856B62518525D96EDA6A85516B0F4A
:102C5000E96EEA6ADFCFEFFF852B0F0E8565F2D7AD
:102C60000A0E2F6E010E2E6E856BC4D8BCD800D90B
:102C70008565FBD7856BB7D8DF50636F646BDF0E5C
:102C80006325F66EF50E6421F76EF86A000EF822E1
:102C9000AAD80800F5CFDFFF852B0F0E8565EBD78F
:102CA00060C01AF061C01BF062EC32F02F0401E149
:102CB00084D0856B91D86329D96EBDD8656F93D8C0
:102CC000DF506519836F88D8CFD8B5D8A4D8846F62
:102CD0008319816F81D86329D96EADD89CD8826F52
:102CE0007F0E836508D01B0E83C063F0A9D87B6F6D
:102CF00064517C6F05D0D89083357B6F7C6B7C37BB
:102D00007BC083F07F0E826508D01B0E82C063F00B
:102D100097D87D6F64517E6F05D0D89082357D6FD6
:102D20007E6B7E377DC082F07F0E846508D01B0EDF
:102D300084C063F085D87F6F6451806F05D0D890D0
:102D400084357F6F806B80377FC084F04CD884D807
:102D500081198319DF6E40D86329D96E52D865294D
:102D600075D881198219DF6E37D8020E6325D96EA6
:102D700048D8020E65256AD881198419DF6E2CD8CF
:102D800073D83FD8020E652561D8676F85516025DD
:102D9000686F000E6121696F6829E96E000E692174
:102DA000EA6EEF506A6F58D86A1967198119DF6E99
:102DB000040E85270F0E85657DD76B0E1A6E73EC9A
:102DC00023F0856B17D80FD853D88565FBD72F060E
:102DD0002F5001E04FD7120085516025636F000E20
:102DE0006121646F120085516025D96E000E61214A
:102DF000DA6E120085516B0FD96EDA6ADF50636F9D
:102E00001200000E6421DA6E85516025656F000E98
:102E10006121666F1200656F85516025666F000E37
:102E20006121676F020E6625D96E000E6721DA6E8A
:102E3000DF5065191200000E6421DA6EDF501200B7
:102E4000646BD8906337643763191200E96E000E23
:102E50006621EA6EEF50120085516025E96E000E82
:102E60006121EA6EEF501200030E6325D96E120045
:102E70006351DF1A852B0F0C99C31EF01C50D96EBD
:102E8000DA6ADF501F6E1D5014E01E50DAD8DE28BB
:102E900010E0E6D8D6D8EAD8ABEC3BF0F5D865BF61
:102EA000ACD0655105E1100E645D01E3C2D0A5D040
:102EB000C0D01D5001E0A1D01E50C3D8DE2801E1D2
:102EC0009CD0CED8BED8D2D8ABEC3BF0DDD80D0E1E
:102ED000030176EC47F010EC20F0F5500001666F2E
:102EE000676B6451665D6751800A686F6551800A3F
:102EF000685901E29ED081D0ACD8030EDF6E1F2A44
:102F0000A8D8DF6A1E50D6EC0BF0DFA003D0A1D802
:102F1000000EDB801E50D6EC0BF0DFA203D099D858
:102F2000000EDB821E50D6EC0BF0DFA403D091D84C
:102F3000000EDB841F2A73D08CD8050EDF6E1F2A8B
:102F400088D8DF6A1E50D6EC0BF0DFA603D081D8FC
:102F5000000EDB801E50D6EC0BF0DFA803D079D832
:102F6000000EDB821E50D6EC0BF0DFAA03D071D826
:102F7000000EDB846ED8DF500101B86FDBD769D853
:102F8000060EDF6E1F2A65D8D2C3DFFF1F2A12ECA0
:102F900062F0800AA00F05E312EC62F0800A600F75
:102FA00003E357D8200E04D054D812EC62F03F0B44
:102FB000DF6EC0D74ED8070EDF6E1F2A4AD8DF6AF1
:102FC0001E50D6EC0BF0DFAE03D043D8000EDB80F2
:102FD0001E50D6EC0BF0DFACADD73BD8000EDB8239
:102FE000A9D70301CF69D06B1E502BD81F501A24CC
:102FF000E96E000E1B2056D89DD71E5022D8DF50F8
:10300000020AEFE0010A01E177D7070AEDE0010AC1
:1030100093E0030AB4E0010ACDE00F0AE5E01E2ABE
:10302000100E1E1801E11E6A1E500301981901E0DE
:103030002AD71EC099F31C50D96EDA6A1FC0DFFF71
:103040001200020D9A0EF324D96E030EF420DA6EEC
:1030500012001F501A24D96E000E1B20DA6E1200C7
:10306000FE0E0001606F61691E501200DF50626F3A
:10307000636B6051622761516323340E6225F66EE3
:10308000F70E6321F76E12001FC064F0656B6427B2
:10309000000E65231C50D96EDA6ADF50645F000EA3
:1030A000655B000CEA6EDFCFEFFF12009FD00001DE
:1030B00079697A697B697C69A6D000A521D0D45151
:1030C0002BEC58F01D5002E1CFD80DE30301D45191
:1030D0002BEC58F00D0E01D0D4D8E82EFDD7B0D887
:1030E00038EC51F06ED00301D4512BEC58F0A8D835
:1030F00038EC51F00D0E01D0BED8E82EFDD761D0CE
:1031000002A981D0D6512BEC58F01D5002E1ACD869
:103110000DE30301D6512BEC58F00D0E01D0B1D8C0
:10312000E82EFDD78DD838EC51F04BD00301D651A5
:103130002BEC58F085D838EC51F00D0E01D09BD80F
:10314000E82EFDD73ED000A504D0D5512BEC58F089
:1031500005D002A904D0D7512BEC58F098D8000123
:103160007C5102E19DD81DE379C075F07AC076F0FC
:103170007BC077F07CC078F00D0E05D0D890783306
:10318000773376337533E82EF9D775C065F076C09E
:1031900066F077C067F078C068F060D838EC51F01E
:1031A00010D079C065F07AC066F07BC067F07CC053
:1031B00068F054D838EC51F00D0E01D05CD8E82EF0
:1031C000FDD765C079F066C07AF067C07BF068C053
:1031D0007CF019D0DA512BEC58F059D87C51C4E16D
:1031E0005FD8C2E2DED7000162D80DD003010251E0
:1031F0000F0B01E15CD7020A01E15FD7060AA3E0E9
:10320000020AE8E0F0D700017C517B117A1103E15A
:10321000C80E795D09E3CE0E7927FF0E7A237B2352
:103220007C230301038103D042D80301039179C0B9
:1032300071F07AC072F07BC073F07CC074F0120041
:103240001AC065F01BC066F01CC067F01DC068F0B6
:103250007D0E696F6A6B6B6B6C6B7D0C7D0E696F9D
:103260006A6B6B6B6C6B7D0C1F0E1A5CAC0E1B5883
:10327000DF0E1C581200D89068336733663365330D
:103280001200D8901D321C321B321A3212001AC0A2
:1032900079F01BC07AF01CC07BF01DC07CF01200DE
:1032A0001F0E795DAC0E7A59DF0E7B591200796BD7
:1032B0007A6B7B6B7C6B12000101DDA506D0800E62
:1032C00000017F6F030E7E6F030CDDC180F0030EE3
:1032D0000001801705E0800E7F6F040E7E6F040CE6
:1032E0008A867E517F1107E1000E756F040E746FA0
:1032F00071EC06F006D07EC074F07FC075F071EC02
:1033000006F00101D2050EE1010E1C6E220E3FEC0B
:103310005FF01C6A400E3FEC5FF01C6A410E3FEC10
:103320005FF012D0F0C11CF0120E3FEC5FF0F1C163
:103330001CF0130E3FEC5FF01C6A400E3FEC5FF098
:103340001C6A410E3FEC5FF00101DD83E70EDD17E3
:1033500000017E517F1106E1C0EC36F0050E8FECC6
:103360002FF030D00101D20509E1010E0001606F9C
:10337000000E616F060E8FEC2FF024D0000E8BD85C
:103380008FEC2FF000017E51806F7F51816F826B37
:10339000836B0C0ED8907AD8E82EFCD762D851D81F
:1033A0007EEC42F060C068F061C069F062C06AF013
:1033B00063C06BF00101E2516CEC57F00101E25186
:1033C000BCEC44F05DD839E0E75102E153D80BE39F
:1033D0003ED838EC2EF07EEC42F00C0E53EC28F088
:1033E000E82EFCD712D0E4C180F0E5C181F0E6C13F
:1033F00082F0E7C183F00C0ED890000147D8E82E88
:10340000FBD72FD81ED87EEC42F060C084F061C09C
:1034100085F062C086F063C087F084C068F085C024
:1034200069F086C06AF087C06BF00101E3516CEC73
:1034300057F00101E351BCEC44F000017E6B7F6B5F
:1034400012007D0E646F656B666B676B7D0CE4C16B
:1034500060F0E5C161F0E6C162F0E7C163F0000130
:103460007D0C80C060F081C061F082C062F083C0DA
:1034700063F01200E429FF0EE5590F0EE659120021
:103480000101E451E511E611E7111200803781379F
:103490008237833712000001606F616F050C9E96C2
:1034A000C6AEC7D0C69E2D6A01015AEC58F0DECFD9
:1034B00004F0DDCF05F004C0D9FF05C0DAFF010E2E
:1034C000DF6EAD6BAE6B120024B2120022C0ADF104
:1034D00023C0AEF122C0D9FF23C0DAFFDF502C6E2B
:1034E00020EE01F02250D9262350DA22DECFAFF1B0
:1034F000DDCFB0F1050E2226000E2322E90E2218A0
:1035000007E1020E231804E1E40E226E020E236E80
:1035100024902050221804E12150231801E1248234
:10352000C580020E2D6E020CC5AC04D014D0040E62
:1035300046EF58F0D8903630056E3530046E0450A2
:10354000C96E35A003D00B0E2D6E0B0C030E2D6E25
:10355000030CC5AC02D0262AEAD7C5823650060B2A
:10356000046E056AF00E0410356E0550366E358017
:10357000010E2A6ED6D72A0415E0AFC1D9FFB0C11B
:10358000DAFFDECF35F0DDCF36F0010120EE03F0BB
:103590006AD8DECFC6F2DDCFC7F220EE02F063D8E4
:1035A000DF502B6E35C0C9FF35A0D0D7050E2D6E6C
:1035B000050CC5AC05D0262AC59C050E46EF58F073
:1035C0002B062B2807E13FEC5EF02C2E01D02AD0F1
:1035D000C582A7D74DD8DF50C96E0201C64BC72B95
:1035E0001200C5AC06D0262A040E46EC58F0C59C45
:1035F0001200C586080E2D6E080C080E2D6EC586AD
:10360000080C36D8C9CFDFFF0201C64BC72B2B06EB
:1036100004E0C59A060E2D6E03D0C58A36EC5EF026
:10362000C5881200000E46EF58F0262A060E46EF17
:1036300058F02D5001E148D7010ACAE0030A9BE087
:10364000010AB7E0070AEEE0010ACBE0030AD5E081
:10365000010AE8E00F0AD5E0020A01E165D7010A94
:1036600001E177D7E2D7AF51D926B051DA22120063
:10367000C6C2D9FFC7C2DAFF12000101DDA506D01C
:10368000800E00017F6F030E7E6F030CDDC181F0A1
:10369000030E0001811705E0800E7F6F040E7E6F20
:1036A000040C0101D25109E1400E0001806505D0F2
:1036B000800E7F6F020E7E6F020C8A860101E1513F
:1036C000CEEC60F0B3D871EC06F00101D20522E136
:1036D00080C01CF0220E3FEC5FF00A0E27EC5EF07B
:1036E00000018D6FF00E8D178D878DC01CF00A0EB6
:1036F0003FEC5FF0400E1C6E3FEC5FF01C6A410E29
:103700003FEC5FF0D2C160F0010E0001616F8FEC01
:103710002FF008D01C6A400E3FEC5FF01C6A410E8F
:103720003FEC5FF00101D25105E180C01CF0000EBA
:103730003FEC5FF053EC62F0800EE9EC61F00001C9
:103740008E6B0BD08E517E25D96E000E7F21DA6EE6
:10375000DF50E9EC61F000018E2B80518E5DF2E3C9
:1037600051EC62F00101DD81E70EDD17DEEC54F073
:10377000030E8FEC2FF00001686B696B0A0E6A6F05
:103780006B6B0101E1516CEC57F00101E151BCECB4
:1037900044F040EC1AF046E0E75103E13AEC1AF04D
:1037A0000CE327EC1AF038EC2EF07EEC42F00C0E15
:1037B00053EC28F0E82EFCD71DD0E4C181F0E5C120
:1037C00082F0E6C183F0E7C184F00C0ED8900001CE
:1037D0008137823783378437E82EF8D781C060F08D
:1037E00082C061F083C062F084C063F021EC1AF003
:1037F0007EEC42F060C089F061C08AF062C08BF05C
:1038000063C08CF089C068F08AC069F08BC06AF030
:103810008CC06BF00101E3516CEC57F00101E351F6
:10382000BCEC44F000017E6B7F6B1200000E0001C7
:10383000756F040E746F040CE5C0D9FFE6C0DAFFA3
:10384000DECFE9F0DDCFEAF0000120EE02F0C7D8CC
:10385000DECFECF0DDCFEDF0010EEB6FEF69E9C0EC
:1038600098F0EAC099F0FDEC31F0EE6FECC081F019
:10387000EDC082F0010E836F5DEC32F02DEC43F071
:10388000000908E0ECC060F0EDC061F0C3EC37F077
:103890006051EF6FEEAFEFBF92D0EB6B6CD0EF519A
:1038A00002E189908CD089808AD0EF5102E189921F
:1038B00086D0898284D0EF5102E1899480D08984B6
:1038C0007ED0EF5102E189967AD0898678D0EF5187
:1038D00002E1899874D0898872D0EF5102E1899A07
:1038E0006ED0898A6CD0EF5102E18D9068D08D80C6
:1038F00066D0EF5102E18D9262D08D8260D0EF519F
:1039000002E18C945CD08C845AD0EF5102E18D940A
:1039100056D08D8454D0EF5102E18B9A50D08B8ACF
:103920004ED0EF5102E18C9A4AD08C8A48D0EF51A8
:1039300002E18C9E44D08C8E42D0EF5102E18C9CEF
:103940003ED08C8C3CD0EF5102E1899E38D0898EDC
:1039500036D0EF5102E1899C32D0898C30D0EF51C2
:1039600002E18A9E2CD08A8E2AD0EF5102E18A9CF5
:1039700026D08A8C24D0EE5192E0010A96E0030A08
:103980009AE0010A9EE0070AA2E0010AA6E0030A03
:10399000AAE0010AAEE00F0AB2E0010AB6E0030AAB
:1039A000BAE0010ABEE0070AC2E0010AC6E0030A63
:1039B000CAE0010ACEE01F0AD2E0010AD6E0EB51CC
:1039C00040EC1FF0DECFE7F0DDCFE8F020EE06F0B0
:1039D00006D8E7C0DEFFE8C0DEFFDD6A1200E55171
:1039E000D926E651DA22120076C0BAF177C0BBF1CF
:1039F00078C0BCF179C0BDF1A80E0101BE6F610EA7
:103A0000BF6FC06BC16B500EC26FC30EC36FC46B70
:103A1000C56B010ED26F070ED46F020ED56F010E6B
:103A2000DB6FDC6BC76B080EC66F0C0ED36F010E1D
:103A3000D66FD76BDA6BC10EC96F940ECA6FC10E09
:103A4000CB6F030ED16F340EC86FDD6BDE6B74C0AD
:103A5000DFF175C0E0F1D86BD96B800EEC6FEE69C9
:103A6000ED6F980EE46F3A0EE56FE66BE76B020EB2
:103A7000EF6F0B0EF06F120EF16FE96BEA6BE8510E
:103A800021E1F3EC51F00101E16FF3EC51F00101A0
:103A9000E26FF3EC51F00101E36F160E1A6EB90EEE
:103AA0001B6E1C6AE2517DEC5EF0880E1A6EA90E48
:103AB0001B6E1C6A0101E3517DEC5EF0010E0101F9
:103AC000E86F0BD0E151CEEC60F00101E251CEEC99
:103AD00060F00101E351CEEC60F0BAEC5AF0000E58
:103AE0000001606F010E616F8FEC2FF067EC08F042
:103AF0004DEC2EF0420E1C6E3B0E3FEC5FF03B0E89
:103B000027EC5EF01F6E1FBAFAD7230E1C6E0C0E48
:103B10003FEC5FF01E0E1C6E0D0E3FEC5FF0AA0E28
:103B20001C6E1F0E3FEC5FF08F0E1C6E350E3FECCF
:103B30005FF01C68320E3FEC5FF0400E1C6E310EE1
:103B40003FEC5FF0010E0001606F616F000E8FECC3
:103B50002FF093866186F19E00017A6B05D081A6D5
:103B600002D0939603D07A2B7AAFF9D76196F18E73
:103B70001C68230E3FEC5FF0420E27EC5EF0010163
:103B8000EB6F12008B6B86C08CF087C08DF0AFD0CE
:103B900003019851D6EC0BF0DF909851D6EC0BF066
:103BA000DF929851D6EC0BF0DF949851D6EC0BF0E5
:103BB000DF969851D6EC0BF0DF989851D6EC0BF0CD
:103BC000DF9A9851D6EC0BF0DF9C9851D6EC0BF0B5
:103BD000DF9EA1D89851020D9A0EF324E96E030ED0
:103BE000F42052EC18F061D08CC01AF08DC01BF09C
:103BF0009FEC5BF01AC08CF01BC08DF00301985154
:103C000021EC18F0DF6865D08CC067F08DC068F0DB
:103C100088518625696F000E87216A6F49EC0AF08A
:103C200067C08CF068C08DF054D08CC01AF08DC085
:103C30001BF041EC5DF01AC08CF01BC08DF049D038
:103C40008CC071F08DC072F050EC27F071C08CF018
:103C500072C08DF03ED08CC01AF08DC01BF072EC9B
:103C600061F01AC08CF01BC08DF033D08CC07EF098
:103C70008DC07FF025EC25F07EC08CF07FC08DF0EC
:103C800028D08CC061F08DC062F08BEC5BF061C01D
:103C90008CF062C08DF01DD0010E8B6F885186258F
:103CA0008C6F000E87218D6FA9D735D800018C4B02
:103CB0008D2BDF50020A98E0010AA6E0070AB5E062
:103CC000010ABEE0030AC7E0010AD0E00F0AD9E00A
:103CD000E3D70301985121EC18F0DE2804E0100E20
:103CE000986101D0982B100E981901E1986B000192
:103CF00088518625896F000E87218A6F89518C5DD6
:103D00008A518D5903E28B5101E142D78CC086F074
:103D10008DC087F012008CC0D9FF8DC0DAFF120071
:103D2000E5C0D9FFE6C0DAFFDECFE9F0DDCFEAF08B
:103D3000010E0001EB6FED69E9C098F0EAC099F05F
:103D4000FDEC31F0EC6FECBF80D05AD0000E80B0AB
:103D5000010EED6F79D0000E80B2010EED6F74D0C0
:103D6000000E80B4010EED6F6FD0000E80B6010E14
:103D7000ED6F6AD0000E80B8010EED6F65D0000EB9
:103D800080BA010EED6F60D0000E84B0010EED6FB1
:103D90005BD0000E84B2010EED6F56D0000E83B4DE
:103DA000010EED6F51D0000E84B4010EED6F4CD0BA
:103DB000000E82BA010EED6F47D0000E83BA010EDD
:103DC000ED6F42D0000E83BE010EED6F3DD0000EB0
:103DD00083BC010EED6F38D0000E80BE010EED6F7A
:103DE00033D0000E80BC010EED6F2ED0000E81BED0
:103DF000010EED6F29D0000E81BC010EED6F24D0B5
:103E0000EC51A4E0010AA7E0030AAAE0010AADE030
:103E1000070AB0E0010AB3E0030AB6E0010AB9E01C
:103E20000F0ABCE0010ABFE0030AC2E0010AC5E0D4
:103E3000070AC8E0010ACBE0030ACEE0010AD1E09C
:103E40001F0AD4E0010AD7E0EB6BEB5109E0EB511C
:103E500017D8DECFE7F0DDCFE8F01FD8DD6A12001B
:103E600017D8ED51796F7A6B79BF7A0721D8E1ECD9
:103E70003AF0D80EE76F070EE86F0FD876EF33F001
:103E8000020D660EF324D96E020EF420DA6E1200D3
:103E9000D80E776F070E786F120020EE06F0E5510E
:103EA000D926E651DA22E7C0DEFFE8C0DEFF1200C5
:103EB0007C6B0A0E7B6F0A0C00018D6F0301E751CA
:103EC000DDEC61F0D1C387F000018D051DE18DC0EF
:103ED00079F08E0E7A6F7B6B0301DF5147EC34F083
:103EE0008C6FF10E0301D12580EC51F099D8F5507B
:103EF000D5EC61F00301E151D15D0A0F176F0D0E92
:103F000017653BD0176F39D0030100BD11D0D16BBD
:103F100092D8400E47EC34F08C6F0A0ED5EC61F06D
:103F20000301E1510A08176F070EE1EC61F015D0AB
:103F3000040ED16F80D8080E47EC34F08C6F080E59
:103F4000D5EC61F00301E1510E08176F0D0E1765F6
:103F500001D0176F090EE1EC61F0030100BD03D041
:103F60001F6A1F2A01D01F6A1F3A1F461F460301FE
:103F700000511F18BF0B1F18006F87C0D1F300013D
:103F80008C514BE1400E8E6116D08E519FEC50F05B
:103F900071C088F072C089F073C08AF074C08BF071
:103FA000070EE1EC61F0290E030140D839D8F55035
:103FB000C5EC61F020D08E5184EC48F071C088F0DF
:103FC00072C089F073C08AF074C08BF0090EE1EC06
:103FD00061F0290E03012AD823D8F550800A650F15
:103FE00007E2290E23D81CD8F550C5EC61F003D0A8
:103FF0001A0EC5EC61F088C01AF089C01BF08AC0A7
:104000001CF08BC01DF044EC3EF0010ED1EC61F0D1
:10401000000ECDEC61F08EC0CCF300018C5112008B
:10402000F722F86A000EF82208001200D325F66E77
:10403000F76AF70E12008DC079F08E0E00017A6FCC
:104040007B6B1200030103B163D0E36B0251F00BF1
:104050000209026F00A52AD0FF0E17259FD810EC89
:1040600020F0F5CFA8F08A519DD88B2173D87EEC33
:1040700042F08AD8D4516CEC57F09CD88FD810EC11
:1040800020F0F5CFA8F08C518DD88D2163D87EEC2F
:1040900042F07AD8D5516CEC57F00301D451BCEC06
:1040A00044F00301D551BCEC44F029D0FF0E172594
:1040B00075D810EC20F0F5CFA8F0865173D8872181
:1040C00049D87EEC42F060D8D6516CEC57F072D8EB
:1040D00065D810EC20F0F5CFA8F0885163D889217D
:1040E00039D87EEC42F050D8D7516CEC57F0030130
:1040F000D651BCEC44F00301D751BCEC44F064D879
:10410000D8A412000251F00B0809026FFDEF4AF02B
:1041100015EC62F00001A86FA8A90AD04FD80500DD
:10412000FA6EF751FD6EF851FE6EFF6AFA501200FA
:10413000F751F811D8B41200946B956B966B030E7F
:10414000976F0500FA6EF751FD6EF851FE6EFF6A2B
:10415000FA5012000001AA6FAB6BAC6B0C0ED8903A
:10416000A937AA37AB37AC37E82EF9D7A9C060F02A
:10417000AAC061F0ABC062F0ACC063F07D0E646FAA
:10418000656B666B676B7D0C60C068F061C069F041
:1041900062C06AF063C06BF003011200F66EF76A4A
:1041A000F60E12000001A825A96F000EA8BFFF0E91
:1041B00003011200FF0E03011C251200946B956B86
:1041C000966B020E976F020C020E03011219120079
:1041D00071C0D9FF72C0DAFFDF500001806F714BF0
:1041E000722B805130EC5DF0F3E200017C6B7D6B53
:1041F0007E6B7F6B7B6B2D0E801906E1010E7B6F52
:10420000A3D8714B722B03D02B0E8019F9E0300E1E
:1042100080191DE199D8714B722B7551761104E00C
:10422000100E751976110DE1780E801903E0580E05
:10423000801907E1766B100E756F86D8714B722B63
:1042400006D07551761103E1766B080E756F7551C6
:10425000761103E1766B0A0E756F8051E9EC5CF024
:1042600008E300018051E4EC5FF0C90F0001806FAA
:1042700008D0000180516FEC5EF02FE3300E00019A
:10428000805F8051776F786B7551775D7851800AC8
:10429000796F7651800A795920E275C065F076C051
:1042A00066F0B2EC48F07CC069F07DC06AF07EC078
:1042B0006BF07FC06CF038EC51F0805165257C6F5D
:1042C000000E66217D6F000E67217E6F000E682153
:1042D0007F6F3AD8714B722BC0D7000173517411A4
:1042E0000EE0FF0E7125776FFF0E7221786F73C09D
:1042F000D9FF74C0DAFF77C0DEFF78C0DDFF7B51E5
:104300001AE07CC077F07DC078F07EC079F07FC085
:104310007AF0771F781F791F7A1F772B000E78238A
:1043200079237A2377C071F078C072F079C073F086
:104330007AC074F0000C7CC071F07DC072F07EC059
:1043400073F07FC074F0120071C0D9FF72C0DAFF41
:10435000DF50806F1200010E0001E96F8CD861D828
:1043600050EC57F000094BE06FD85BD850EC57F099
:10437000000945E080D8DECF71F05ED8E8EC20F08F
:104380007151EA6F20EE02F06DD880EC2FF054D816
:10439000E8EC20F07151EB6F6ED8DECFE7F05BD820
:1043A00045D843EC54F0020E1A181B1028E1000106
:1043B000EA5108E165D85FD859D857EC40F01A5057
:1043C0001B101DE141D8DECFE7F045D82FD843ECD4
:1043D00054F0020E1A181B1012E10001EB5108E113
:1043E0004FD832D843D857EC40F01A501B1007E191
:1043F000EBC01CF0EA513FEC5FF00001E96B0001FB
:10440000E95103EC3FF0DECFE7F0DDCFE8F020EE3E
:1044100006F028D8DA22E7C0DEFFE8C0DEFFDD6A5A
:104420001200DECF60F0DDCF61F012001A501B10D9
:10443000D8A4200E1C6E1200DDCF72F0736B746B6B
:10444000766B100E756F100C20EE02F0E551D92638
:10445000E651DA221200DDCFE8F0E7C01AF0E8C03A
:104460001BF01200E551D926E6511200DECF1CF0F8
:10447000DDCF1DF01200E5C0D9FFE6C0DAFF120063
:104480004A0E1A6EFF0E1B6E1200E5C0D9FFE6C081
:10449000DAFFDECFE9F0DDCFEAF0010E0001EB6FCD
:1044A000E9C098F0EAC099F0FDEC31F0EC6FECBF98
:1044B0005DD0DF0EEC2540EC0AF010EC20F0F5A406
:1044C00055D00001EB6B38D0000E95EC58F02FD092
:1044D000010E95EC58F02BD0020E95EC58F027D039
:1044E000030E95EC58F023D0040E95EC58F01FD035
:1044F000050E95EC58F01BD0060E95EC58F017D031
:10450000160E95EC58F013D0070E95EC58F00FD01E
:10451000110E95EC58F00BD0190E95EC58F007D011
:104520001B0E95EC58F003D01A0E95EC58F060C0B5
:10453000EDF061C0EEF01AD0EC51C6E0010AC8E01F
:10454000030ACAE0010ACCE0060ACEE0030AD0E082
:10455000010AD2E00F0AD4E0010AD6E0030AD8E04B
:10456000010ADAE0070ADCE0010ADEE00001EB51B3
:104570000AE0EB5140EC1FF0DECFE7F0DDCFE8F0D2
:1045800013D8DD6A120048EC1FF0EDC079F0EEC0E0
:104590007AF058EC1FF0E1EC3AF0D80EE76F070E16
:1045A000E86F02D876EF33F020EE06F0E551D92619
:1045B000E651DA22E7C0DEFFE8C0DEFF1200090E96
:1045C000E126000EE2223F6840684168426870D8E8
:1045D000D2EC29F0FB0E37C0E3FF2EEC53F0FE0EB9
:1045E0003AC0E3FFFF0EE36A47D0FF0EE35087ECCB
:1045F0003CF0DE043FE1FF0EE35052D8FB0EE3CF68
:1046000037F0DE50375CFC0E60D8FD0E5ED8FE0E33
:104610005CD805E3FF0EE35043D85CD82BD0FF0EE7
:10462000E3503ED8FB0EE350DE5EFC0EE350DE5A54
:10463000FD0EE350DE5AFE0EE350DE5AFF0EE3504D
:104640002FD8F70EE350DE5CF80EE350DE58F90E7B
:10465000E350DE58FA0EE350DE580CE2FF0EE35052
:104660001FD8DECF3FF0DECF40F0DECF41F0DECF0F
:1046700042F01ED8FF0EE32AFF0EE3CF37F0305092
:10468000375CB3E3F70EE3CF37F0F80EE3CF38F043
:10469000F90EE3CF39F0FA0EE3CF3AF0F70E1FD060
:1046A000080D000EF324D96E040EF420DA6E120009
:1046B000F70E3FC0E3FFF80E40C0E3FFF90E41C024
:1046C000E3FFFA0E42C0E3FFFA0CE3CF37F0DE500F
:1046D00037581200DE6ADE6ADE6ADD6A1200E12601
:1046E000FF0EE222FF0C1A50D96EDA6A0D0E60D866
:1046F0001D5086D80E0E5CD8D92A1D5081D80F0EB9
:1047000057D8020ED9261D507BD80C0E51D8030E57
:10471000D9261D5075D82E50DF1A7F0E2E640CD06E
:104720001B0E2EC01BF01C6AD8901B361C361B18A3
:104730001E6E1C501F6E05D0D8902E341E6E1F6A40
:104740001F361EC02EF01A50D96EDA6A53D8040EE6
:1047500043D8D92A4FD8050E3FD8020E44D8060EAA
:104760003BD8030E40D8070E37D8040E3CD8080EAD
:1047700033D8050E38D8090E2FD8060E34D80A0EB5
:104780002BD8070E30D80B0E27D8080E2CD80C0EBD
:1047900023D8090E28D80D0E1FD80A0E24D80E0EC5
:1047A0001BD80B0E20D80F0ED9261B50DF1A120073
:1047B000D926DF501B6E1C6ADF0E1B24F66EF50E29
:1047C0001C20F76EF86A000EF8220800F5CF1DF0E5
:1047D0001A50D96EDA6A1200D9261B50DF1A1A5005
:1047E000D96EDA6A1200D926DF501B6E1A50D96EC4
:1047F000DA6A1200DF501B6E1A50D96EDA6A1200A4
:10480000DF1A1A50D96EDA6A1200AE6BAF6B9C39A0
:104810000F0BAD6F010EAE6F31D05BD86FEC37F080
:1048200068D8C7EC5BF0AF6B75D8AE51A86FA96BB9
:10483000A83BA93BF00EA917A8510F0BA913F00E26
:10484000A8179AC0AAF09BC0ABF0A851AA27A951FB
:10485000AB23AF51AA27000EAB23F00EAA25E96EB9
:10486000FF0EAB21EA6EEF50AC6F4CD8AC19DF6E87
:10487000A42BAF2B0F0EAF65D7D7AE2BAE51AD5DCE
:10488000CCE24FD8D8B40F0C24D86FEC37F031D825
:10489000C7EC5BF0AF6B18D03DD8AD51100D9AC08E
:1048A000A8F09BC0A9F0F350A827F450A923AF515A
:1048B000A825E96E000EA921EA6EEF50AA6F22D852
:1048C000AA19DF6EA42BAF2B2CD8A851AF5DE4E35F
:1048D00012009EC065F09FC066F0A0C067F0A1C046
:1048E00068F0AEC069F0010E6A6FA7C06BF09D5111
:1048F0001200CA0E866F020E876FA2C088F0A3C096
:1049000089F01200CA0EAF25E96EEA6A020EEA22A9
:10491000EF501200A451A525D96E000EA621DA6E23
:1049200012009CC0A8F00F0EA8170F0C000120EE7B
:1049300004F081D885D8E7C01AF0E8C01BF016EC67
:1049400022F043EC54F01AC0EEF01BC0EFF0D89008
:104950000001EF31E76FEE31EA6FE7C0EBF0030ED5
:10496000ED6FE5C0D9FFE6C0DAFF28EC43F08EC258
:1049700065F08FC266F08CC267F08DC268F0CEEC35
:1049800051F0E96F20EE02F056D83DEC3AF0EC0E13
:10499000696F96EC3FF000092AE0EB0528E2020E71
:1049A000E96125D020EE04F046D811EC22F050EC5D
:1049B00057F000091CE0EEC068F0EFC069F020EE8F
:1049C00004F039D8EDEC2CF036EC2BF0EEA102D04F
:1049D000EA4BEB2BECC0DCF0D80EDD6F070EDE6F80
:1049E000EAC0DFF0E951C7EC32F00001ED6FED51A4
:1049F00020EC43F025D820EE06F01DD8E7C0DEFFFE
:104A0000E8C0DEFFDD6A070EED19D8A4120003012D
:104A1000E951D8B41200000E00012EEC06F0C7ECEC
:104A200032F0000120EE06F006D814C2DEFF15C2F7
:104A3000DEFFDD6A1200E551D926E651DA221200C6
:104A4000DECFE7F0DDCFE8F0120084D8DF50856FCD
:104A50007E4B7F2B7FD8FF0EDE14816FFF0EDE149E
:104A6000826FFF0EDE14836F000EDE14846F81C030
:104A700065F082C066F083C067F084C068F0640EA1
:104A800059EC08F038EC51F065C081F066C082F056
:104A900067C083F068C084F0030E7E27000E7F237A
:104AA00059D8DF50806F7E4B7F2B855189EC60F0A9
:104AB000000933E0000185519FEC50F081517119DC
:104AC00009E18251721906E18351731903E184519E
:104AD000741911E0855184EC48F08151711909E194
:104AE0008251721906E18351731903E184517419DB
:104AF00002E035D805E103019851D6EC0BF0DF8ECA
:104B000080C01CF0000185514DEC44F0000905E126
:104B100003019851D6EC0BF0DF8C03019851D6ECD1
:104B20000BF0DFAE12D09851D6EC0BF0DFAC0DD00D
:104B3000000115D805E11E6A85513AEC5BF005D0FD
:104B400080C01DF08551C4EC5CF07EC07EF07FC05B
:104B50007FF012007EC0D9FF7FC0DAFF12008151C2
:104B6000821183118411120078EC5AF0F1EC61F09B
:104B7000480E1E6EAF0E1F6EBFEC53F0B5EC61F029
:104B8000F28EF28C010E1B6E0B0E1A6E57EC5FF05C
:104B90000401FA6FFB6B010E1B6E0C0E1A6E57ECC4
:104BA0005FF00401F96FF951FB27FA2902E1FB29B3
:104BB0002BE060EC0FF071C0F5F472C0F6F4040164
:104BC000F551FA1903E1F651FB1929E0C9EC26F079
:104BD00051D8EBEC48F048D8DBEC5BF0010E3AEC36
:104BE00061F00401FC6BFD6BFCC41AF0FDC41BF00A
:104BF0001C68A5EC56F00401FC4BFD2B0D0EFC5D72
:104C0000010EFD590CE2F0D7C9EC26F033D8EBECDD
:104C100048F02AD8DBEC5BF0010E3AEC61F01ED8CC
:104C200046EC3AF0ABEC14F043EC54F01AC0F7F455
:104C30001BC0F8F4DAEC14F0D8A4200E626FF7C4AD
:104C400063F0F8C464F096EC40F0C2EC56F061EC0E
:104C500058F0CAEC30F0F3EC44F0F7D7D80E00016E
:104C6000656F070E666F1200E50E0001656F040E9A
:104C7000666F1200E50E00016D6F040E6E6F12007C
:104C8000010E0001E96F76D87FD8E7C01AF0E8C0BE
:104C90001BF016EC22F043EC54F01AC0EFF01BC0EE
:104CA000F0F068D8F7EC45F0C3EC37F060C0EAF0FC
:104CB00061C0EBF05FD8DECFEDF0DDCFEEF0F0516C
:104CC00048E1040EEF5D45E2EBBF0CD0EB5103E190
:104CD000150EEA5D07E3EBBF3CD0EB5103E1020E9A
:104CE000EA5D37E34CD82B0EDE180EE048D82D0EC7
:104CF000DE1805E1F05108E1020EEF5D05E23FD854
:104D0000DF506FEC5EF025E3010E0001EC6F0CD07C
:104D1000EC51ED25D96E000EEE21DA6EDF506FEC0E
:104D20005EF00AE30001EC2BEC51E76FE86BEF510A
:104D3000E75DF051E859ECE30001EC51EF19F01197
:104D400003E0EF05F01105E1EA51C5EC61F0000167
:104D5000E96B0001E95103EC3FF016D820EE06F0B4
:104D6000E551D926E651DA22E7C0DEFFE8C0DEFFD2
:104D7000DD6A1200E5C0D9FFE6C0DAFF1200EDC01F
:104D8000D9FFEEC0DAFF1200DECFE7F0DDCFE8F0AA
:104D900012000301E20502E178EC50F0340E030149
:104DA000E76FE751DDEC61F0030170D8CF69D06B9C
:104DB00072D8C66BC76B5FEC06F064EC06F0C46B90
:104DC000C56BCE6B010ECD6FC26BC36BE06BE16B3D
:104DD00062D8986B996B039559D8006B016B070EDD
:104DE000C96FC86B010ECB6FCA6FD269126B40D806
:104DF000F4EC1CF0C9EC58F0050ED36FA00E186F40
:104E0000700E196F080E1A6F370E1B6F080E1C6F8D
:104E1000D16B14EC44F0966B690E7CEC52F01D0ED5
:104E2000E66E030EE66EC9EC41F0B9EC53F0070EE6
:104E3000896FD00E886F130E8B6F880E8A6F170ED6
:104E40008D6F700E8C6F070E936FD00E926F200EC9
:104E5000956F400E946F8F6F8E6B916F906BE86BB8
:104E60000001726B716BD5EC27F0010EB9EF61F0A8
:104E7000090E0001746F0B0E756FA00E766F700E29
:104E8000776F080E786F370E796F370C026B036BF4
:104E9000046B056B1200BA6BBB6BBC6BBD6B120075
:104EA0007FD8DF50776F714B722B7AD8FF0EDE14EC
:104EB000736FFF0EDE14746FFF0EDE14756F000E3D
:104EC000DE14766F73C065F074C066F075C067F06D
:104ED00076C068F0640E59EC08F038EC51F065C00B
:104EE00073F066C074F067C075F068C076F0030EAA
:104EF0007127000E722373C068F074C069F075C02A
:104F00006AF076C06BF07FEC49F0000905E103011F
:104F10009851D6EC0BF0DF86000177510F0B27EC90
:104F20005FF0000905E103019851D6EC0BF0DF8832
:104F300000017739070BC6EC60F0000905E10301B9
:104F40009851D6EC0BF0DF8A03019851D6EC0BF0A8
:104F5000DFA81FD09851D6EC0BF0DFA61AD09851DD
:104F6000D6EC0BF0DFAA15D000017739070B03014F
:104F7000E16F73C01AF074C01BF075C01CF076C0EE
:104F80001DF0000177510F0B1E6EA5EC5FF00301C1
:104F9000038F010E336E71C071F072C072F0010C9C
:104FA00071C0D9FF72C0DAFF120071C065F072C023
:104FB00066F0676B686BE80E696F030E85EC08F0AE
:104FC00038EC51F065C0BEF366C0BFF367C0C0F3F4
:104FD00068C0C1F3715172111DE10301D951CEECCA
:104FE00060F00301039500017B6B0ED07B5121EC37
:104FF00018F0020EDE1806E17B5121EC18F0DF6894
:105000000301980700017B2B0301985100017B5D90
:10501000EDE312000301038502A91200C15103E16F
:1050200047EC2EF00BE33DEC2EF038EC2EF07EEC4E
:1050300042F00C0E38D8E82EFDD71DD0BEC373F059
:10504000BFC374F0C0C375F0C1C376F00C0ED89026
:1050500000017337743775377637E82EF8D773C089
:1050600060F074C061F075C062F076C063F021EC4E
:105070001AF07EEC42F060C077F061C078F062C058
:1050800079F063C07AF077C068F078C069F079C0D1
:105090006AF07AC06BF00301D9516CEC57F0030150
:1050A000D951BCEF44F0D89060376137623763372D
:1050B0001200B00EF66EA60EF76E000EF86E04EE3D
:1050C000A0F020EE45F00900F5CFEEFFDD50D950FD
:1050D000FAE15C0EF66E760EF76E000EF86E02EEDA
:1050E00000F020EE98F00900F5CFEEFFDD50D9502A
:1050F000FAE1F80EF66EC20EF76E000EF86E01EED3
:10510000F3F020EE09F00900F5CFEEFFDD50D950A5
:10511000FAE1CE0EF66EC40EF76E000EF86E0900C0
:10512000F5CFFFF04E0EF66EC40EF76E000EF86E61
:1051300000EE43F020EE04F00900F5CFEEFFDD5065
:10514000D950FAE105EE90F026EE78F0EE6ADD50E7
:10515000D950FCE1DA50FAE105EE00F0900EEE6A6B
:10516000E806FDE104EE00F0A00EEE6AE806FDE1BF
:1051700003EE00F0EA0EEE6AE806FDE102EE98F0BA
:10518000530EEE6AE806FDE101EEA5F04E0EEE6A62
:10519000E806FDE100EEF7F0080EEE6AE806FDE134
:1051A00000EE20F0170EEE6AE806FDE10001B4EF14
:1051B00025F0030103B1D6EF60F0020E121902E1EF
:1051C000DEEC5EF00301CB51C95D52E345EC47F0E4
:1051D0000D0FAA6FAA51A66FA76B0301C65100015C
:1051E000A65D0301C7510001A7592FE3010E5CEC36
:1051F0001FF0000902E0B6EF4BF04FD83DEC1BF07A
:105200007E517F1102E0B6EF4BF0030125EC33F045
:10521000CB2BCBB11200D151D8B41200CB5100012D
:10522000A66FA76B0301C9510001A86FA96BA82B3A
:10523000000EA923A651A81902E08CEF41F0A75156
:10524000A919D8B412008CEF41F0D6EC60F02CD83C
:10525000D8B41200946B956B966B040E976F050093
:10526000FA6EF751FD6EF851FE6EFF6AFA501200A9
:10527000CB51C95DD8A003B11200D6EC60F014D8B0
:10528000D8B41200DFEC3CF00500FA6AF751FD6E6D
:10529000F851FE6EFF6AFA501200FA0E7E6F090E88
:1052A0007F6FC6C380F012000001F751F8111200A1
:1052B0000001E06B21EC0FF0C9EC41F01F0E000182
:1052C000DF17FC0EDF17E30EDF1729EEEAF0DFC071
:1052D000DFFFE02BE16BE1515908D96E000ED8A039
:1052E000E82A030847D8E165F6D7080EE027E16B06
:1052F000E1516108D96E000ED8A0E82A03083AD817
:10530000E165F6D7080EE0277869776952EC5DF021
:1053100077C0C4F378C0C5F3EA0EE0253ED808ECA8
:1053200044F064EC4CF0020E0001E027420ED06F16
:10533000030ED16FEA0ED26F090ED36FE0C0D4F026
:1053400085EC4DF0D0C0DBF0D1C0DCF0D2C0DDF098
:10535000D3C0DEF0EA0E0001E0251FD8DB0E1C6E84
:105360001D6AAFEC37F064EC4CF0040E0001E0274E
:10537000E0511200DA6EEA0ED96F090EDA6FE051D1
:10538000D927000EDA23E151D925E96E000EDA2182
:10539000EA6EDFCFEFFFE12B070C1A6E1B6A090ED6
:1053A0001B22120012EC53F037C0B3F138C0B4F135
:1053B00034042CE1346A65D8D8A041064150426ECD
:1053C00051D83F6EAA513C20406EAB513D20416EFA
:1053D000AC513E20426E000E3F240201C06F000E11
:1053E0004020C16F010E4120C26F000E4220C36FEA
:1053F000B3C1A5F1B4C1A6F10101A76BA86BA96B5C
:10540000AA6BAB6BAC6B276A286A23D03AD8426A86
:1054100029D80201C06F0101AA513C200201C16FCD
:105420000101AB513D200201C26F0101AC513E2090
:105430000201C36FC0510101A5270201C151010141
:10544000A6230201C2510101A7230201C351010198
:10545000A823C0C237F0C1C238F0C2C239F0C3C2FB
:105460003AF01200A5513F5C3B6EA65140583C6E8D
:10547000A75141583D6EA85142583E6EA9513B2458
:10548000120027500101B35D3F6E2850B459406EA1
:10549000416A1200120E27EC5EF00001EB6F700EF5
:1054A0001C6E120E3FEC5FF00001EB51500B500AE6
:1054B000D8A412000101E351CEEC60F08A961C0ED4
:1054C00027EC5EF00001ED6F0101D65104E0000110
:1054D000EBABEDAD4AD0130E27EC5EF00101DE6FB1
:1054E0001C6A0D0E3FEC5FF053EC62F0000EE9EC2D
:1054F00061F00001ED6B08D0ED514CEC39F0E9ECB6
:1055000061F0DF6E0001ED2B0101DE510001ED5D68
:10551000F3E351EC62F00101DD85190E27EC5EF03A
:105520000101EC6F040E1A6EEC5117EC4FF0010103
:10553000EC6F1A0E27EC5EF00001EC6F630EEC25A9
:105540000101ED6FEE6BFF0EEE23ECAF06D0EC51D8
:10555000ED27000EECBFFF0E06D00001EC390F0B5B
:105560000101ED27000EEE2302D00101DD87DEEC04
:1055700054F08FEC2FF00101DD9353EC39F013EF71
:1055800002F01A6A030E1B6E1C6A1D6AAFEC58F01B
:10559000200E0001E76F290EE82EFED7E72FFCD77B
:1055A00000D0200E0001E76F290EE82EFED7E72F6E
:1055B000FCD700D0200E0001E76F290EE82EFED7A1
:1055C000E72FFCD700D0200E0001E76F290EE82E50
:1055D000FED7E72FFCD700D0200E0001E76F290E81
:1055E000E82EFED7E72FFCD700D0200E0001E76F92
:1055F000290EE82EFED7E72FFCD700D0200E0001A1
:10560000E76F290EE82EFED7E72FFCD700D0200E3B
:105610000001E76F290EE82EFED7E72FFCD700D058
:10562000200E0001E76F290EE82EFED7E72FFCD7EA
:1056300000D0200E0001E76F290EE82EFED7E72FDD
:10564000FCD700D0200E0001E76F290EE82EFED710
:10565000E72FFCD700D0200E0001E76F290EE82EBF
:10566000FED7E72FFCD700D0FF0012006AC01AF067
:105670006BC01BF016EC22F043EC54F01AC078F02B
:105680001BC079F00001766B776BD89079316E6F23
:105690007831716F6EC072F0706B78B103D07107A2
:1056A000D8A07207785168193EE17951691936E03E
:1056B0003AD0795103E1020E785D13E378516A25FF
:1056C0006E6F79516B216F6FFE0E6E25D96EFF0ED6
:1056D0006F21DA6EDF5029D8020E785F000E795BF9
:1056E00005D0300E22D87807D8A07907764B772BD3
:1056F0007651730FD96EDA6ADF6A730E606F8BECC6
:1057000033F071516C25D96E72516D21DA6E60C023
:10571000DFFF766B776B7107D8A07207785179112C
:10572000C8E1010E706F70511200736F764B772BCA
:1057300078516A256E6F79516B216F6FFF0E6E2560
:10574000D96EFF0E6F21DA6E7651730FE96EEA6A39
:10575000DFCFEFFF120022EE2CF000EEA1F00F0ED3
:10576000DBCFEBFFE806FCE2100E7CEC52F0B10E52
:10577000A06FA0C0E6FFE66AC9EC41F0B10E0001DF
:10578000866F876B9AC088F09BC089F0C7EC5BF08E
:10579000B1BF04D04BD818EC52F016D047D818EC53
:1057A00052F0C16BC151A10FD96EDA6ADF50A06F00
:1057B000C1519C25D96E000E9D21DA6EA051DF1AD1
:1057C000C12B0F0EC165EED79CC0D9FF9DC0DAFF7B
:1057D000DFBE03D020D818EF52F01DD818EC52F0DD
:1057E000C16BC1519E25D96E000E9F21DA6EC15149
:1057F000A10FE96EEA6AEF50A06FC1519E25E96ED4
:10580000000E9F21EA6EEF50A019DF6EC12B0F0E24
:10581000C165E7D70F0C9CC01AF09DC01BF09EC05D
:105820001CF09FC01DF0100E1E6E100CB10E1A6EF3
:105830001B6A9CC01CF09DC01DF0100E1E6E100C4B
:105840006AC070F06BC071F06CC072F06DC073F024
:1058500070C060F071C061F072C062F073C063F03C
:1058600051D87EEC42F060C070F061C071F062C04F
:1058700072F063C073F0684B692B70517111721133
:105880007311E6E149D8DF6A6807D8A069076AC0E2
:1058900060F06BC061F06CC062F06DC063F06EC010
:1058A00064F06FC065F0000E65BFFF0E666F676F36
:1058B000B0EC49F06051746F6AC060F06BC061F089
:1058C0006CC062F06DC063F01DD87EEC42F060C029
:1058D0006AF061C06BF062C06CF063C06DF0090EDD
:1058E000746502D0070E7427300E742715D874C063
:1058F000DFFF6807D8A069076A516B116C116D1141
:10590000C6E112006EC064F06FC065F0000E65BFA6
:10591000FF0E666F676F120068C0D9FF69C0DAFFBB
:10592000120064D868D8E7C01AF0E8C01BF016EC83
:1059300022F043EC54F01AC0EDF01BC0EEF0010E63
:105940000001EB6FD890EE31E76FED31E96FE7C002
:10595000EAF0F4EC61F00001EC6FEC5105E1EE517E
:1059600003E1110EED5D06E3EC0527E1020EED19F2
:10597000EE1123E13BD811EC22F050EC57F0000976
:105980001CE0EDC068F0EEC069F030D826D836ECE7
:105990002BF0EDA102D0E94BEA2BEC0505E1FEEC82
:1059A00034F0DDEC61F007D0D80E656F070E666F3E
:1059B000E951A4EC5AF00001EB6BEB5103EC3FF022
:1059C0001AD820EE06F0E551D926E651DA22E7C0D2
:1059D000DEFFE8C0DEFFDD6A1200DECF6AF0DDCF59
:1059E0006BF0D80E6C6F070E6D6F1200E5C0D9FF1B
:1059F000E6C0DAFF1200DECFE7F0DDCFE8F01200FC
:105A0000030E0001EF6F66D811EC22F050EC57F056
:105A1000000943E0696B080E686F5CD8DECF6AF05E
:105A2000DDCF6BF0EB0E6C6F6D6B36EC2BF000097D
:105A300034E0EE51F06FF16BF26BF36BEDC0E7F019
:105A4000E86BE96BEA6BE9C0EAF0E8C0E9F0E7C0AF
:105A5000E8F036D8ECC0E7F0E86BE96BEA6BE8C039
:105A6000EAF0E7C0E9F0E86B2BD8EBC0E7F0E86BB1
:105A7000E96BEA6BE7C0EAF0E96BE86B21D8F0C0AC
:105A80001AF0F1C01BF0F2C01CF0F3C01DF0B0EC36
:105A90005FF00201C48D0001EF6BEF5120EC43F089
:105AA000DECFE7F0DDCFE8F020EE06F0E551D926B5
:105AB000E651DA22E7C0DEFFE8C0DEFFDD6A120051
:105AC000E76BE751F027E851F123E951F223EA515E
:105AD000F3231200E5C0D9FFE6C0DAFF1200030E7F
:105AE0000001EF6F66D811EC22F050EC57F000097E
:105AF00043E0696B080E686F5CD8DECF6AF0DDCFDB
:105B00006BF0EB0E6C6F6D6B36EC2BF0000934E034
:105B1000EE51F06FF16BF26BF36BEDC0E7F0E86BF9
:105B2000E96BEA6BE9C0EAF0E8C0E9F0E7C0E8F049
:105B300036D8ECC0E7F0E86BE96BEA6BE8C0EAF056
:105B4000E7C0E9F0E86B2BD8EBC0E7F0E86BE96B56
:105B5000EA6BE7C0EAF0E96BE86B21D8F0C01AF015
:105B6000F1C01BF0F2C01CF0F3C01DF033EC5FF08D
:105B70000201C4870001EF6BEF5120EC43F0DECF50
